:0400000080313428EF
:1000060001347E14803120007F08F1002100911C0C
:1000160013282000911C1328A531F22580312F28A2
:100026002100911E1D282000911E1D289831722046
:1000360080312F282100111E27282000111E272875
:100046009831AC2080312F282100921C2F282000C7
:10005600921C2F28A731CE2771082000FF007E10A2
:10006600090080313628FA01FB01DE3084000030B9
:1000760085001130FE000030FF00A6317426803165
:1000860020308400013085004830FE000030FF003B
:10009600A63174268031A0308400013085004230BC
:1000A600FE000030FF00A631742680312030840027
:1000B600023085002030FE000030FF00A631742695
:1000C60080313730840093308500783086002730C1
:1000D60087000030FF007830A63168268031210085
:1000E600803103208031EF00003084009830850095
:1000F60068308600013087000030FF000430A631EA
:1001060068268031A53084009C308500A0308600AA
:10011600023087000030FF004030A63168267E108E
:1001260020009631612E32302000C0004008CD00FC
:1001360020003108C1003008C000B00A0319B10A16
:1001460040088400410885000008C2004208D50026
:10015600550803190800253055060319B728550810
:10016600A531FB2580319B282000D301D401D20183
:10017600C12852150130B0070030B13D3008840067
:10018600310885000008303A0319BC28CA2830080F
:100196008400310885000008A631A7268031031C9B
:1001A60068292000D301D4010A302000A0000030C5
:1001B600A1005408A3005308A20098313A208031C8
:1001C60020002108D4002008D3003008840031081C
:1001D60085000008D03EC000FF3003180030C10083
:1001E6004008D3074108D43D0130B0070030B13D87
:1001F60030088400310885000008A631A726803122
:10020600031C6829D72852166829D2178C294D084D
:1002160086008701403FC900413FCA000230C00046
:100226004008CD0749084A04031D1D299930C90015
:100236008530CA00CB01CC0149084B0784004A0827
:100246004C3D8500120003192D290130CB070030E3
:10025600CC3D1F2954084C02031D332953084B0279
:1002660003183A294B08D3024C08D43B3C29D30146
:10027600D401FF302000D307FF30D43D530A0319C1
:10028600540A031958292030A531FB2580313C2911
:10029600490884004A0885000008A531FB258031FD
:1002A60001302000C9070030CA3D0130CB020030C2
:1002B600CC3B4B0A031D4B294C0A03199B284B299F
:1002C600C030C0004008D2048C2920003108C1008B
:1002D6003008C000B00A0319B10A4008840041087A
:1002E60085000008D500003A0319382B643A031933
:1002F6008C290D3A03198C29053A031906291F3A48
:1003060003190A29063A031963290D3A031908291C
:100316009B285208C039031DC529521E9F294D0826
:1003260086008701403FCE00413FCF00423FD000CC
:10033600433FD1000430B0294D0886008701403F75
:10034600C000413FC1004008CE004108CF00890DE2
:10035600893B8909D000D1000230C0004008CD0792
:10036600D11F462A0330C0004008D204CE09CF0967
:10037600D009D109CE0A0319CF0A0319D00A0319E5
:10038600D10A462A521ED4294D0886008701403FCD
:10039600CE00413FCF00423FD000433FD100043062
:1003A600E2294D0886008701403FC000413FC10059
:1003B6004008CE004108CF00D001D1010230C00074
:1003C6004008CD07462AD501D50A0A305506031935
:1003D600522A5508C000C101C035C10DC035C10D36
:1003E6003930400784008330413D8500003FC2001C
:1003F600013FC300023FC400033FC5004508510248
:10040600031D0F2A44085002031D0F2A43084F02FA
:10041600031D0F2A42084E02031C522A0130C00057
:100426004008D507E829D501D50A0830550603192D
:10043600522A5508C000C101C035C10DC035C10DD5
:100446006130400784008330413D8500003FC20093
:10045600013FC300023FC400033FC50045085102E7
:10046600031D3F2A44085002031D3F2A43084F023A
:10047600031D3F2A42084E02031C522A0130C000C7
:100486004008D507182A5208C039003A0319E62948
:10049600803A0319162A403A0319E629522A5308C4
:1004A600540403195E2A5208033903195E2AFF30E1
:1004B600D307FF30D43D5508C000C101C01BC1039E
:1004C6004108803AC2005408803A4202031D6D2A50
:1004D6005308400203187A2A20005508C000C101BB
:1004E600C01BC1034008D3024108D43B7D2A20002B
:1004F600D301D401521D962A520803390319872ABB
:100506002D30A531FB2580312000530854040319F2
:10051600AF2A3030A531FB258031FF302000D307CC
:10052600FF30D43D882A530854040319A72A2030E3
:10053600A531FB258031FF302000D307FF30D43DA5
:1005460053085404031D9A2A520803390319AF2A83
:100556002D30A531FB25803120005508C700C80184
:10056600C71BC803212B0030A9000030A8000030AB
:10057600A7000A30A600480885004708840084358D
:10058600850D8435850D393084078330853D003FE0
:10059600F200013FF300023FF400033FF50051086B
:1005A600F9005008F8004F08F7004E08F6009031A1
:1005B6003E20803175082000AD007408AC00730839
:1005C600AB007208AA009C31E52480312000260881
:1005D600303E1A2B48088500470884008435850D6F
:1005E6008435850D613084078330853D003FF200F8
:1005F600013FF300023FF400033FF5005108F90004
:100606005008F8004F08F7004E08F60090313E20DB
:10061600803172080F392000C0004008C600460825
:100626007F3E840084300318013E85000008C00028
:100636004008D5005508A531FB258031FF30200044
:10064600C707FF30C83D470A0319480A03199B2804
:100656005208C039003A0319B62A803A0319ED2A1E
:10066600403A0319B62A1D2B1D2B0800013400340D
:10067600003400340A340034003400346434003466
:1006860000340034E83403340034003410342734A2
:1006960000340034A034863401340034403442340B
:1006A6000F34003480349634983400340034E13406
:1006B600F53405340034CA349A343B3401340034FA
:1006C6000034003410340034003400340034013473
:1006D6000034003400341034003400340034003464
:1006E6000134003400340034103400340034003453
:1006F600003401340034003400341034543465348A
:100706006D347034653472346134743475347234D3
:1007160065343A342034253464342E342534643434
:10072600203443342C3420346C3469346D346934C9
:1007360074343A342034253464342E342534643405
:10074600203443340D340A34003442347534693469
:100756006C34743420346F346E343A3420344D346F
:1007660061347934203432343634203432343034FF
:10077600313436342034303439343A343134373441
:100786003A34343437340D340A340034453445347D
:10079600503452344F344D342034733469347A34FF
:1007A6006534203473346D3461346C346C346534A0
:1007B600723420347434683461346E342034253411
:1007C60075340D340A34003425346C3475342E34C3
:1007D600253475342034253464342E342534643479
:1007E6002034433420342834253464342E342534DC
:1007F60064342034433429340D340A3400345434F8
:1008060065346D34703465347234613474347534DF
:10081600723465343A342034253464342E34253425
:100826006434203443340D340A34003443346C3495
:1008360065346134723469346E346734203461341B
:100846006C346C3420346534763465346E347434E8
:1008560073340D340A34003445344534503452343C
:100866004F344D34203477347234693474346534FB
:1008760020346634613469346C34653464340D3440
:100886000A34003441344C34413452344D3420342B
:100896002534643420344034203425346C347534A3
:1008A6002E34253475343A340D340A340034543435
:1008B60065346D3470342034733465346E34733477
:1008C6006F34723420344634413449344C340D3458
:1008D6000A34003441346C34613472346D3420345B
:1008E60063346F3475346E3474343A3420342534BA
:1008F60075340D340A340034303431343234333400
:100906003434353436343734383439346134623437
:100916006334643465346634003441344C344134D1
:1009260052344D343A342034253464342E3425344C
:100936006434203443340D340A3400344E344F3496
:1009460054342034613463346B346E346F3477340A
:100956006C34653464346734653464340034543438
:1009660065346D3470342034733465346E347334C6
:100976006F34723420344F344B340D340A3400341F
:1009860053346134763469346E34673420346134D8
:100996006C34613472346D340D340A3400344834A6
:1009A60065346C346C346F34203477346F3472347D
:1009B6006C34643421340D340A34003442346F34D8
:1009C600743474346F346D3420346C3469346D345B
:1009D600693474343A342034003441346C3461342C
:1009E60072346D342034413443344B342734643408
:1009F6000D340A340034253464342E3425346434FA
:100A06002034433420347334653474340D340A345A
:100A1600003455346E346B346E346F3477346E3440
:100A2600203463346D3464343A3420340034423430
:100A36006F34743474346F346D3420346C346934E8
:100A46006D346934743420340034413463346B3487
:100A56006E346F3477346C3465346434673465349B
:100A66006434003441344C34413452344D342034EF
:100A76004F34463446340D340A3400345534703419
:100A860020346C3469346D34693474343A34203427
:100A960000340D340A343034783425343034333469
:100AA60078343A3420340034423475347A3420347D
:100AB6006F34663466340D340A34003469346E3467
:100AC600763461346C34693464340D340A34003459
:100AD6005534703420346C3469346D34693474346C
:100AE6002034003463346C347234653476346534BF
:100AF6006E3474347334003442346F346F34743467
:100B060020344F344B340D340A34003430347834C6
:100B16003034303430343A3420340034303478349D
:100B260025343034323478342034003428346E346A
:100B360075346C346C342934003420342034203439
:100B460020342034003441344C34413452344D3452
:100B560000346734723465346534743400346C346C
:100B660069346D34693474340034253473340D3487
:100B76000A340034743465346D34703400346434AB
:100B860075346D34703400344234203400345534B6
:100B9600203400342A3400342D34003443340034F5
:100BA6002E3400342100BC00B101AC30F200853097
:100BB600F3000530F4000030F5003C089D3128258F
:100BC600853172087304031DF02DD2302000B00069
:100BD6008430B100803196200800BD30F2008530A7
:100BE600F3000430F4000030F50021003C089D318C
:100BF6002825853172087304031D1A2E0230200041
:100C0600B0008430B10021005F082000B30021004D
:100C16005E082000B200210060082000ED00EE0111
:100C26006D08B4006E08B5008031962008002100DA
:100C36003C088600013087007530010603192B2E0B
:100C46003C0886000130870062300106031D6A2FCA
:100C5600B230F2008530F3000530F4000030F500C4
:100C66003C08013E9D312825853172087304031D19
:100C76006A2F2100B301B401B501B6013C089931D0
:100C86009B21853100307302093003197202031C5F
:100C96001E2F21003C08063E8600013087002030CA
:100CA6000106031D1E2F3C08073E86000130870003
:100CB60030300102031C682E3C08073E86000130D6
:100CC60087003A300102031C712E3C08073E86005D
:100CD600013087002D300106031D1E2FB201BB30E7
:100CE6002000ED006D08A4000A30A5000030A60023
:100CF60021003C08073E8931062185312000250860
:100D06002100B400200024082100B300B501B6017B
:100D16003B088600013087002E300106031DAE2EEB
:100D26003B0A86000130870001080319AE2E200019
:100D3600A4010A30A5000030A60021003B08013EB0
:100D4600893106218531200025082100B6002000C2
:100D560024082100B5003C08860001308700753064
:100D66000106031DD22E34082000E80021003308B6
:100D76002000E700210036082000EA00210035089F
:100D86002000E9009331AF2385312000ED006D0886
:100D96002100B2006B302000B0008530F62E210015
:100DA6003C0886000130870062300106031DFA2EDA
:100DB60034082000E800210033082000E700210065
:100DC60036082000EA00210035082000E9009431A9
:100DD600B72485312000ED006D082100B2001A30DD
:100DE6002000B0008530B100803196208531210089
:100DF60032080319162FFE302000B0008430B100EF
:100E0600210034082000B300210033082000B2007E
:100E1600210036082000B500210035082000B40066
:100E260080319620080061302000B0008530B10086
:100E360080319620080021003C088600013087009A
:100E460075300106031D352FB9302000A70000308C
:100E5600A800B7309A313C22853141302000B000DD
:100E660085304E2F21003C08860001308700623015
:100E76000106031D522FB7302000A7000030A8003E
:100E8600B930A9000030AA009A31A0228531E1309C
:100E96002000B0008430B100803196208531973033
:100EA6002000B0008430B100210038082000B300D3
:100EB600210037082000B20021003A082000B500C2
:100EC600210039082000B4008031962008007830CF
:100ED600F2008530F3000630F4000030F500210002
:100EE6003C089D312825853172087304031D7E2F29
:100EF6009531422508007530F2008530F30009303F
:100F0600F4000030F50021003C089D31282585318C
:100F160072087304031D9A2F19302000B000843024
:100F2600B1008031962085319D316B250800C23095
:100F3600F2008530F3000430F4000030F5002100A3
:100F46003C089D312825853172087304031DAE2F98
:100F56009231062208000C302000B0008530B10026
:100F6600803196208531B8302000B0008530B10040
:100F760021003C082000B2000130B30080319620E9
:100F86002100B101080020003708031D08002200D7
:100F9600D301D30A7B082000B8003808BC007B08C0
:100FA6007A06031DD82FFB01DD2F7B08013EB80012
:100FB6003808FB007B08B800B9013808A0003908DA
:100FC600A1000C30A2000030A30098313A208731EE
:100FD60078302000BA002730BB0020083A07860088
:100FE60021083B3D87000108031DFD2F3C08B80082
:100FF6003808FB008A3104220800F500F401751C4C
:1010060008287208F3007308F4070310F20D0310A2
:10101600F50C7508031D0228740808009C31262467
:101026008831210063082000B2003208A40007308E
:1010360099310B218831CD302000A6008530A700DC
:101046009C31652488312000A401083099310B2198
:101056008831CA302000A6008530A7009C3165245F
:1010660088312000A401A40A083099310B21883167
:10107600C7302000A6008530A7009C316524883142
:1010860021006E082000B40021006D082000B30086
:1010960021006A082000B600210069082000B5007A
:1010A6002100EE1F69282000B309B409B30A031909
:1010B600B40AA4010A3099310B218831CF302000BF
:1010C600A6008530A7009C31652488312100EA1FDF
:1010D60080282000B509B609B50A0319B60AA40185
:1010E600A40A0A3099310B218831CF302000A6009E
:1010F6008530A7009C31652488312000A4010B307F
:1011060099310B21883120003408A5003308A4004A
:101116000230B2003208A6009531D0258831200071
:10112600A401A40A0B3099310B218831200036081E
:10113600A5003508A4000230B2003208A600953199
:10114600D02588312000A4010D3099310B2188313A
:10115600D3302000A6008530A7009C316524883155
:101166002000A401A40A0D3099310B218831D33017
:101176002000A6008530A7009C3165248831200018
:10118600A4010E3099310B21883121006C08200012
:10119600A50021006B082000A400A601A60A95312F
:1011A600D02588312000A401A40A0E3099310B21E4
:1011B6008831210068082000A5002100670820006A
:1011C600A400A601A60A9531D02588312000A401E5
:1011D6000F3099310B218831D1302000A60085309F
:1011E600A7009C31652488312000A401A40A0F3091
:1011F60099310B218831D1302000A6008530A70017
:101206009C31652408002000B100200031088600CA
:10121600013087000108A8002808B2000130A800A4
:101226002808B1073208A73115278931031C1D2963
:101236002000082900302000B0000030AF00003048
:10124600AE000030AD00AC012D303206031D2E2954
:10125600AC01AC0A32292B303206031D3E29310877
:101266008600013087000108A8002808B200013076
:10127600A8002808B10730303206031D7829310846
:101286008600013087000108A8002808B200013056
:10129600A8002808B1072508260403195729103085
:1012A60025062604031D70297830320603195F29A6
:1012B60058303206031D70291030A5000030A600F4
:1012C60031088600013087000108A8002808B2000E
:1012D6000130A8002808B107782925082604031D2F
:1012E60078290830A5000030A60025082604031D2D
:1012F60080290A30A5000030A6003208A73103274E
:101306008931031C912920003208A631C326893170
:10131600C93E2000A8002808B2009B2920003208F8
:10132600A631A7268931031CDC2930302000B20201
:101336002608803A803C031DA2292508320203189C
:10134600DC2920003208A800A901AA01AB01250862
:10135600F2002608F300890D893B8909F400F5009F
:101366003008F9002F08F8002E08F7002D08F600BF
:101376009A316E22893172082000A8077308A93DA8
:101386007408AA3D7508AB3D2B08B0002A08AF00CB
:101396002908AE002808AD00310886000130870014
:1013A6000108A8002808B2000130A8002808B107E3
:1013B6008029200024080319E8293108FF3EA800E7
:1013C600240886008701280881002C080319FB29B8
:1013D6002D09A4002E09A5002F09A6003009A70093
:1013E600A40A0319A50A0319A60A0319A70A0800DD
:1013F6003008A7002F08A6002E08A5002D08A40077
:1014060008009C3126248A3122005308031DAF2A86
:101416002000A401073099310B218A31CD302000FC
:10142600A6008530A7009C3165248A312000A401DE
:10143600A40A073099310B218A31A4302000A60076
:101446008530A7009C3165248A312000A40108302C
:1014560099310B218A317B087A072000AD00AE0155
:101466000318AE0AFB1BAE03FA1BAE0320002D08C1
:10147600013EF40000302E3DF50001307A07F200FF
:10148600F3010318F30AFA1BF3039D31F4258A319D
:1014960073082000A1007208A0000C30A2000030E2
:1014A600A30098313A208A3120002008013EAF007F
:1014B6000030213DB0007830B1002730B2002F084F
:1014C6003107A6003008323DA7009C3165248A31D9
:1014D6002000A401A40A083099310B218A317B0827
:1014E6007A072000AD00AE010318AE0AFB1BAE035F
:1014F600FA1BAE0320002D08023EF40000302E3DFC
:10150600F50001307A07F200F3010318F30AFA1B1B
:10151600F3039D31F4258A3173082000A100720877
:10152600A0000C30A2000030A30098313A208A3186
:1015360020002008013EAF000030213DB000783089
:10154600B1002730B2002F083107A6003008323D1F
:10155600A7009C316524080022005303031D0800E0
:101566002000A401073099310B218A31A4302000D4
:10157600A6008530A7009C3165248A312000A4018D
:10158600A40A073099310B218A31CD302000A600FC
:101596008530A7009C3165248A312000A4010830DB
:1015A60099310B218A317B087A07F400F50103187B
:1015B600F50AFB1BF503FA1BF50301307A07F20067
:1015C600F3010318F30AFA1BF3039D31F4258A315C
:1015D60073082000A1007208A0000C30A2000030A1
:1015E600A30098313A208A3120002008013EAD0040
:1015F6000030213DAE007830AF002730B0002D0816
:101606002F07A6002E08303DA7009C3165248A319D
:101616002000A401A40A083099310B218A317B08E5
:101626007A072000AD00AE010318AE0AFB1BAE031D
:10163600FA1BAE0320002D08013EF40000302E3DBB
:10164600F50001307A07F200F3010318F30AFA1BDA
:10165600F3039D31F4258A3173082000A100720836
:10166600A0000C30A2000030A30098313A208A3145
:1016760020002008013EAF000030213DB000783048
:10168600B1002730B2002F083107A6003008323DDE
:10169600A7009C3165240800A63131268B317508D8
:1016A6002000C1007408C0007308BF007208BE00A5
:1016B60022005B080319582CA63116268B317308B5
:1016C6002000BB007208BA0022005C092000B200AC
:1016D60022005D092000B300B20A0319B30A3E08CE
:1016E6003207A0003F08333DA100E830A2000330D6
:1016F600A30098313A208B3120002008BA07210830
:10170600BB3D220048092000B20022004909200002
:10171600B300B20A0319B30A3A083207B4003B0809
:10172600333DB50002303502EF3003193402031C95
:10173600582C2200DB019B3108238B3179082000CD
:10174600BD007808BC0022006908803A2000B2007B
:1017560080303202031DB22B0330220068020318C8
:10176600C22B01302200E8070030E93D20003D0889
:101776002200E50020003C082200E400E92B0230AC
:10178600F2000030F30020003D08F5003C08F400AC
:101796009F31AE278B3172082000B2007308B30068
:1017A6000230F2000030F30022006508F5006408FC
:1017B600F4009F31AE278B317208200032072200D9
:1017C600E40073082000333D2200E5000230F200F9
:1017D6000030F3006508F5006408F4009F31AE2779
:1017E6008B3173082100DF007208DE00053020000F
:1017F600B2003208F2002200640801398831002064
:101806008B312000B30033082100E0002000A40142
:10181600003099310B218B3121005F082000A50093
:1018260021005E082000A4000230B2003208A600A3
:101836009531D0258B312000A401023099310B213E
:101846008B31D3302000A6008530A7009C3165245B
:101856008B312000A401033099310B218B312100FB
:1018660060082000B200B3013208A4003308A500C6
:10187600A601A60A9531D0258B312000A40104309B
:1018860099310B218B31F701F70A00309B31752313
:101896008B312000A401053099310B218B31F701E2
:1018A600F70A43309B3175238B3120003E08B20086
:1018B6003F08B3004008B4004108B50022005C09A7
:1018C6002000B60022005D092000B70022005E0954
:1018D6002000B80022005F092000B900B60A0319EB
:1018E600B70A0319B80A0319B90A3608B20737083E
:1018F600B33D3808B43D3908B53D3508031D8D2C78
:101906003408031D8D2C3308031D8D2C053032023F
:10191600031C912C22005B080319962C22006808F0
:1019260069040319B32CA6319A268B312200DB01F8
:10193600DB0A200041082200DF00200040082200C8
:10194600DE0020003F082200DD0020003E082200C5
:10195600DC00A631162673082200C9007208C800EA
:10196600E801E9010800003020008D1A013021004D
:10197600B300003020000D1801302100B400003003
:1019860020000E1901302100B5009831E8208C3175
:1019960020002030860000308700B63084000030FA
:1019A60085000630EF0016001A00EF0BD62C21003A
:1019B6003408031DE52C6F03031DE52C2200CC0122
:1019C600CC0AFE2C21003403031DFE2C6F08031DD8
:1019D600FE2C2200340835040319FC2C580820007C
:1019E600EF006F08B700220035088A0034080A00A5
:1019F6008C312200CC0121006F0834060319172D03
:101A06009831E8208C312000203086000030870095
:101A1600D6308400013085000630EF0016001A002B
:101A2600EF0B112D2200D9012100B00122004C0834
:101A36000319392DD6302000A4000130A500B63098
:101A4600EF006F08A60094312D248C312000270862
:101A5600031D362D2608031D362DE83024020330DB
:101A6600253B031C392D2100B001B00A21003008A6
:101A76002000EF006F082200D80058080319512DE6
:101A86005908031D512DD901D90A3008310403190B
:101A9600512D31088A0030080A008D3121003408A2
:101AA6002000EF006F082100EF003308031D622DB0
:101AB60022006A03031D622DCA01CA0A7B2D21007A
:101AC6003303031D7B2D22006A08031D7B2D280886
:101AD60029040319792D54082000EF006F08B70078
:101AE600220029088A0028080A008D312200CA012E
:101AF60022006A08210033060319952D9831E82043
:101B06008C3120002030860000308700CA308400E7
:101B1600013085000630EF0016001A00EF0B8F2DFE
:101B26002200D5012100B10122004A080319B72D70
:101B3600CA302000A4000130A500B630EF006F08BF
:101B4600A60094312D248C3120002708031DB42DC6
:101B56002608031DB42DE83024020330253B031C60
:101B6600B72D2100B101B10A210031082000EF0094
:101B76006F082200D40054080319C62D5508031D0A
:101B8600C62DD501D50A210033082000EF006F08C5
:101B96002200EA0021003508031DD82D22006B0320
:101BA600031DD82DCB01CB0AF12D21003503031DD2
:101BB600F12D22006B08031DF12D2E082F040319A9
:101BC600EF2D56082000EF006F08BA0022002F08FC
:101BD6008A002E080A008D312200CB0122006B08F4
:101BE6002100350603190B2E9831E8208C31200090
:101BF6002030860000308700D03084000130850018
:101C06000630EF0016001A00EF0B052E2200D70152
:101C16002100B20122004B0803192D2ED0302000DE
:101C2600A4000130A500B630EF006F08A60094317D
:101C36002D248C3120002708031D2A2E2608031D7B
:101C46002A2EE83024020330253B031C2D2E2100CA
:101C5600B201B20A210032082000EF006F0822000C
:101C6600D60056080319452E5708031D452ED701E1
:101C7600D70A2A082B040319452E2B088A002A089E
:101C86000A008E31210035082000EF006F0822007F
:101C9600EB0008002100AE01AC01AC0A6608803AF0
:101CA600A0005F08803A2002031D5B2E5E086502D5
:101CB600031C762E210066085F06031D642E650848
:101CC6005E06031D742E22006708803A2100A000DC
:101CD60080302002031D722E600822006602031C5B
:101CE600762E2100AC0121002C08A0002008B000AF
:101CF600AD01AD0A5F08803AA00022006308803A71
:101D060021002002031D8B2E2200620821005E02A4
:101D1600031CA62E2200630821005F06031D972ED2
:101D26002200620821005E06031DA42E220061081F
:101D3600803A803C031DA22E600821006002031C2D
:101D4600A62E2100AD0121002D08A0002008AF001D
:101D56006208031DBA2E22004D08031DBA2E21006B
:101D6600300803192F080319BA2EAE01AE0A210056
:101D76002E0803193F2F22008E160D1690302000D4
:101D8600B0008430B10021005F082000B3002100BC
:101D96005E082000B20021006008A000A101200812
:101DA6002000B400210021082000B50080319620D3
:101DB6008E312000A401A40A003099310B218E3106
:101DC600A6302000A6008530A7009C3165248E3100
:101DD60001302100A0002008E2009831E8208E3171
:101DE60020002030860000308700A03084000130BB
:101DF600850006302100A00016001A00A00BFF2E59
:101E0600A030860001308700B7308400003085009E
:101E16000630A00016001A00A00B0D2FC5015F08A2
:101E2600BE005E08BD006008A000A1012008BF003A
:101E36002108C000300803192B2F6608C200650868
:101E4600C100220067082100C40022006608392F5D
:101E5600220063082100C200220062082100C1009E
:101E6600220061082100C400220060082100C3008E
:101E7600B7309231CC228E3121003008031D672FF6
:101E86002F08031D672F62080319632F22008E1285
:101E96000D1235302000B0008530B100803196201B
:101EA6008E312000A401A40A003099310B218E3115
:101EB600A0302000A6008530A7009C3165248E3115
:101EC6002100E2012200CD019831E8208E31200068
:101ED6002030860000308700B13084000030850055
:101EE60006302100A00016001A00A00B762F62080B
:101EF6000319C72F22004D08031DC72F21003108E3
:101F0600A0003208A1003308A2003408A300230071
:101F16005C092100A40023005D092100A50023001F
:101F26005E092100A60023005F092100A700A40A7C
:101F36000319A50A0319A60A0319A70A2408A00764
:101F46002508A13D2608A23D2708A33D2308031D19
:101F5600B62F2208031DB62F2108031DB62F1F30EA
:101F66002002031CC72F22008E16B13086000030D7
:101F76008700DC3084000130850006302100A00097
:101F860016001A00A00BC32F20008E1ACC2F0D1E90
:101F96000800DC30A4000130A500B1302100A0000B
:101FA60020082000A60094312D248E312000270819
:101FB6002100AB00200026082100AA0020002508E9
:101FC6002100A900200024082100A8002B08031DD9
:101FD600F52F2A08031DF52FE93028020330293B87
:101FE600031C080057302000B0008530B100803156
:101FF600962022008E120D1208009831CA20080081
:10200600993153219031EB302000A7000030A80011
:10201600ED309A313C22903121006E082200BF003B
:1020260021006D082200BE0021006C082200BD00C0
:1020360021006B082200BC00E9302000A700003018
:10204600A800E730A9000030AA009A31A0229031FA
:1020560021006A082200BB00210069082200BA009C
:10206600210068082200B900210067082200B80094
:1020760088311120080000302000A4000030A300A1
:102086000030A2000030A1007508740473047204C5
:1020960003198828A501A50AF51B5D280130F2352C
:1020A600F30DF40DF50D890B52280130A000200820
:1020B600A5074F280130A135A20DA30DA40D890B4C
:1020C6005E2875087902031D722874087802031DBC
:1020D600722873087702031D722872087602031CA1
:1020E6007D287208F6027308F73B7408F83B7508FA
:1020F600F93B21140130F536F40CF30CF20C890B84
:102106007E280130A502031D5D282408F50023085A
:10211600F4002208F3002108F20008002000C201A2
:10212600C10122008E100630A631282690312200E9
:102136008E149831E820903120002030860000303F
:10214600870043308400003085000630C00016004A
:102156001A00C00BAA28A631D22690312000C00052
:102166004008C100C11CB9280130BA280030C0009F
:102176004008C2009831E8209031200020308600C7
:102186000030870049308400003085000630C000EA
:1021960016001A00C00BCB284208031DEB2843305B
:1021A600A4000030A5004930C0004008A6009431C4
:1021B6002D24903120002708031DEB282608031D37
:1021C600EB282508031DEB2864302402031CAE28E7
:1021D6004208080022008C01E03021008C00230018
:1021E6008C0124008C0122008D01E13021008D003C
:1021F60023008D01213024008D00023022008E0044
:10220600D43021008E0023008E01043024008E007D
:102216000830210090002400900121009513003021
:102226008B1B0130F2008B1355303C008F00AA3017
:102236008F000F103D001908E0390E38990020086C
:10224600E0391138A0003C002008E0391338A0001E
:102256003D002308E0391038A3003C002108E0398E
:102266001438A1003D002608E0391438A6003C00C9
:102276002408E0391738A40055308F00AA308F00A3
:102286000F14721C48298B1708008B1308002000B6
:102296003708031D080021006308031D84296A0806
:1022A600803A2000B80021006E08803A20003802EB
:1022B600031D602921006D086902031C7329210092
:1022C6006808803A2000B80021006C08803A200097
:1022D6003802031D712921006B086702031884293F
:1022E60021006B086C04031D81290530EB000030CA
:1022F600EC00FF30ED07FF30EE3DA529EB01EC01C8
:10230600A52921006303031DA5296A08803A200038
:10231600B8007F303802031D9329F7302100690287
:10232600031CA529210067086804031DA32905309D
:10233600E7000030E800FF30E907FF30EA3DA52955
:10234600E701E80188311120080020003708031D45
:10235600080021006308031DCE296E08803A20007C
:10236600B80080303802031DBB29553021006D02AC
:102376000318CE2905302100EB070030EC3D0A306A
:102386006B066C04031D032A0130ED070030EE3D99
:10239600EB01EC01032A21006303031D032A6A08EB
:1023A600803A2000B80021006E08803A20003802EA
:1023B600031DE02921006D086902031CF329210091
:1023C6006808803A2000B80021006C08803A200096
:1023D6003802031DF12921006B0867020318032A3E
:1023E60005302100E7070030E83D0A30670668043B
:1023F600031D032A0130E9070030EA3DE701E80141
:1024060088311120080022008E100330A6312826BC
:1024160092310030A6312826923189302000B00052
:102426008530B1008031962092312000D901DA0141
:1024360002305A020030031959020318622A00308A
:10244600A631282692312000D6005608D8009130B1
:10245600B0008530B1005808D600D7015608B20042
:102466005708B3008031962092310F30200059056D
:10247600D60000305A05D7000F3056065704031D04
:10248600562A590A03195A030319562A4C30B00022
:102496008530B1005908013EB20000305A3DB30004
:1024A60080319620923101302000D9070030DA3D84
:1024B60002305A02003003195902031C222A220054
:1024C6008E14080021006E0822003F06031D6F2AA5
:1024D60021006D0822003E06031D7D2A21006C089E
:1024E60022003D06031D7B2A21006B0822003C06C4
:1024F6000319902A21006E082000E80021006D08CB
:102506002000E70021006C082000EA0021006B088B
:102516002000E9009331AF23923121006A0822009E
:102526003B06031D9A2A2100690822003A06031D6C
:10253600A82A2100680822003906031DA62A2100C0
:102546006708220038060319BA2A21006A08200003
:10255600E800210069082000E70021006808200043
:10256600EA00210067082000E9009431B724220020
:102576004708B5004608B4004108A9004008A8006D
:102586004508AF004408AE004308AB004208AA0065
:1025960008002000EF00A7314C2792311A302000A6
:1025A600ED00F830EC00EC0BD62AED0BD62A000035
:1025B600C3302000B0008430B100803196209231C3
:1025C600E7302000B0008330B1006F088600870135
:1025D600403FB200413FB300423FB400433FB50025
:1025E6006F08043E86008701403FB600413FB700B2
:1025F6006F08063E86008701403FB800413FB9009C
:102606006F08083E86008701403FBA00413FBB0085
:102616006F080A3E86008701403FBC00413FBD006F
:102626006F080C3E86008701403FBE00413FBF0059
:10263600803196209231210061082000EC00ED01E6
:10264600EC0EED0EF030ED056C080F39ED04F030B0
:10265600EC056C08E7006D08E8006F08EE006E08F0
:10266600E900A631E2260800013453346534743497
:10267600743469346E34673473340034033410347C
:1026860001344C34693467346834743400340034AB
:1026960000340034E7342734003400340034003486
:1026A6000034003400340034003400340034003484
:1026B6000034003400340034003400340034003474
:1026C6000034003400340034003400340034003464
:1026D6000034003400340034003400340034003454
:1026E6000034003400340034003400340034003444
:1026F6000034003400340034003400340034003434
:102706000034003400340034003400340034003423
:102716000034003400340034003400340034003413
:102726000034003400340034003400340034003403
:1027360000340034003400340034003400340034F3
:1027460000340034003400340034003400340034E3
:1027560000340034003400342100A401200068084D
:10276600803AEB0080306B02031DBB2B55306702AD
:10277600031CC72B5530200067066804031D2A2C4E
:1027860069086A04031D2A2C22006308803A200087
:10279600EB006808803A6B02031DD42B6708220001
:1027A6006202031CF12B2200630820006806031D49
:1027B600E02B2200620820006706031D2A2C220057
:1027C6006108803A2000EB006A08803A6B02031D1C
:1027D600EF2B69082200600203182A2C20006808E3
:1027E6002100E600200067082100E50020006A08B5
:1027F6002200E700200069082200E60020006708A2
:10280600EB006B082100A00020006808EB006B08B5
:102816002100A10020006908EB006B082100A2003E
:1028260020006A08EB006B082100A300003020009E
:10283600D600D700A030EB006B08D8000430EC00BF
:102846006C08D900973124272100A401A40A21008D
:102856002408080020002508A9002408A800043040
:102866002807840029080318290A8500003FAA00C2
:10287600013FAB00AC01AD01AA09AB09AC09AD093A
:10288600AA0A0319AB0A0319AC0A0319AD0A2608EA
:1028960086008701403FAE00413FAF00423FB00097
:1028A600433FB1002408860025088700403FB20058
:1028B600413FB300423FB400433FB500B209B309FC
:1028C600B409B509B20A0319B30A0319B40A0319FC
:1028D600B50A3208AE073308AF3D3408B03D3508B7
:1028E600B13D3108F5003008F4002F08F3002E083A
:1028F600F2000030F9000030F8000330F700E8304D
:10290600F6009A316E22943172082000B6007308E0
:10291600B7007408B8007508B9002608043E86009A
:102926008701403FBA00413FBB003A08BC003B0864
:10293600BD00BE01BF013C08B6073D08B73D3E08D5
:10294600B83D3F08B93D3608AA073708AB3D3808F9
:10295600AC3D3908AD3D2D08A7002C08A6002B0874
:10296600A5002A08A40008002100A4012000680888
:10297600803AEB007F306B02031DC32CF7306702F1
:102986000318D82CF63020006706031D3F2D680A71
:10299600031D3F2D6A08803AEB0080306B02031D51
:1029A600D62C01306902031C3F2D20006808803AAE
:1029B600EB0021006608803A20006B02031DE72C1D
:1029C6002100650820006702031C052D210066080A
:1029D60020006806031DF32C210065082000670609
:1029E600031D3F2D6A08803AEB0022006708803AF3
:1029F60020006B02031D032D2200660820006902D9
:102A060003183F2D200068082200E3002000670815
:102A16002200E20020006A082200E1002000690886
:102A26002200E00020006708EB006B082100A000F0
:102A360020006808EB006B082100A100200069084F
:102A4600EB006B082100A20020006A08EB006B086F
:102A56002100A30004302000D6000030D700A030AB
:102A6600EB006B08D8000430EC006C08D9009731F5
:102A760024272100A401A40A2100240808006D309F
:102A86002000B0008430B100210061082000D6008B
:102A9600D7015608B2005708B30080319620953109
:102AA6002000DB012100610820005B0203180800FA
:102AB6005B08D600D701D60ED70EF030D7055608DC
:102AC6000F39D704F030D6055608103EF300003013
:102AD600573DF4005C30D8005808F5001030F60079
:102AE6000030F7009D31AF25953145302000B0000C
:102AF6008430B1005B08D600D7015608B2005708EB
:102B0600B3005F08B7005E08B6005D08B5005C0854
:102B1600B4006108B9006008B8008031962095318C
:102B260081302000B0008330B1006308B300620832
:102B3600B2006508B5006408B4006708B700660807
:102B4600B6006908B9006808B8008031962095314A
:102B560020006A08031DB32DA130D9008430B62D9C
:102B66002830D9008530DA00B830B0008530B100A1
:102B76005A08B3005908B200803196209531DE30EC
:102B86002000B0008430B1008031962095310130AC
:102B96002000D6005608DB07552DAC3086000130E4
:102BA6008700293084000030850005302000A7000A
:102BB60016001A00A70BDB2D0430B0000030B10060
:102BC600AE01AF01A51FF32DF701F70A2D309B319A
:102BD600752395312000A409A509A40A0319A50A9D
:102BE600240825040319202E0A30F2000030F300D1
:102BF6002508F5002408F4009D31F4259531720866
:102C06002000A7003008293E86008701270881009A
:102C16000A30F2000030F3002508F5002408F4001D
:102C26009F31AE27953173082000A5007208A400D5
:102C3600FF30B007FF30B13DF32D260A0319282EC9
:102C4600302E0130AE070030AF3D2E08293E8600FB
:102C560087010108031D402E242E2608A700A8017F
:102C6600A71BA803A709A809A70A0319A80A2708E2
:102C7600053EAE000030283DAF002F08B1002E08FB
:102C8600B0003108803AA70080302702031D4D2E80
:102C96000530300203180800F701F70A2000300853
:102CA600293E860087010108303E9B317523953108
:102CB60001302000B0070030B13D442EA7318927EE
:102CC600963121001708C139183897008B170B1752
:102CD600A73160279631A73174279631A6313B2656
:102CE6009631E7302200B0002730B100E530AA0067
:102CF6001930AB007F302000B0008530B100803144
:102D060096209631A8302000B0008330B100803183
:102D1600962096319E31392696318A310422963193
:102D26009831E82096312000203086000030870058
:102D3600D23084000030850006302100C70016001E
:102D46001A00C70BA22E210064080319AE2E90317B
:102D560000209631A62EA630860001308700CC30A2
:102D66008400003085000630C70016001A00C70B25
:102D7600B82E9831E82096312000203086000030A9
:102D86008700D83084000030850006302100C70057
:102D960016001A00C70BCB2ED2302000A40000303C
:102DA600A500D8302100C70047082000A6009431AE
:102DB6002D249631200027082100CB00200026086C
:102DC6002100CA00200025082100C900200024088F
:102DD6002100C8004B08031DFA2E4A08031DFA2ECF
:102DE6004908031DFA2E0B304802031C0B2FD8305E
:102DF600860000308700D23084000030850006301F
:102E0600C70016001A00C70B042F8C31B624963162
:102E16009E317F2696318B314F23963121005B08F8
:102E2600031D1F2F5A08031D1F2F5908031D1F2F8F
:102E36000B305802031C222F8E314D26963164002A
:102E4600BC2E1030F2000030F30020005908DA00E2
:102E5600DB015A08F4005B08F5009F31AE27973175
:102E660072082000DC005C08E5006508DA00033023
:102E7600DA35FF3E031D3B2F5A35FF3A013E59070F
:102E8600DB005B08DE0059085607DA00570803180E
:102E9600570ADB0002305B02003003195A02031C9A
:102EA600622FC930B0008330B10059085607B2000E
:102EB60057080318570AB3008031962008002000EF
:102EC600E60166086502031CF62F1030DA005A0880
:102ED600E30066086506031D742F5E08DA005A08CB
:102EE600E30063080319F02F66080319872F0230E1
:102EF600DC00A030DB009230DA00DA0B802FDB0B2F
:102F0600802FDC0B802F000020006608DA00DB0132
:102F1600DA0EDB0EF030DB055A080F39DB04F03031
:102F2600DA0556085A07E10057085B3DE2006208D9
:102F3600DB006108DA000930DB36DA0C890B9F2FDB
:102F46005A08DC000230DC35FF3E031DA62F5C3537
:102F56000238DD005D08DF009031912097312000B6
:102F6600DA005A08E00060080319E82F22008E10E4
:102F760020005F08A6312826973120006108A63177
:102F8600282697312000E401630864020318E52F20
:102F96006608DA000330DA35FF3E031DCE2F5A35B8
:102FA6005807DB0064085B07DC005C0886008701C5
:102FB6000108A6312826973101302000DA005A0888
:102FC600E407C72F22008E14F02F2F302000B00008
:102FD6008430B10080319620973101302000DA002C
:102FE6005A08E607642F1A30DB00F830DA00DA0BED
:102FF600FA2FDB0BFA2F00000800013400340134ED
:103006000134210091121112483023009F009030A4
:103016009D0026309E00A0309B0001309C002200BF
:10302600D001D1011030F2007208EE00CE01CF01BE
:103036002100E4019116080073082200ED007208D1
:10304600EC007308F5007208F400F536F40CF5365A
:10305600F40C74082C00980072080339F40005304B
:10306600F435FF3E031D3328743597000800200011
:10307600A401A501201C43282208A4072308A53D76
:103086000130A235A30D890B44280130A136A00CCE
:10309600890B492820082104031D3D282508A10085
:1030A6002408A0000800A631052698310730F30051
:1030B600F30B5B280032A631002698310B30F30063
:1030C600F30B63280032A6315C269831F3007308AF
:1030D600F4004930F300F30B6E287408080023004F
:1030E6009D1C77281D121D161908F00022004E0897
:1030F600203E860002308700700881000130F00013
:103106007008CE0710304E020318CE010130F000D1
:1031160070082100E4070800A6318D2698312000AA
:10312600D6005608D70057080319A428B230B000B5
:103136008430B10080319620983100309931C02119
:1031460008005A302000B0008430B100803196204B
:103156000800103022006E020318C7285108303EBE
:10316600860002308700010823009A000130F00033
:1031760070082200D107103051020318D101013026
:10318600F0007008EE070800210011120800F30194
:10319600210064080319CB28911222004F08203E13
:1031A6008600023087000108F2007208F300013041
:1031B600F2007208CF0710304F020318CF0101301A
:1031C6002100E402911673080800A63131269831D1
:1031D60075082000A9007408A8007308A7007208E3
:1031E600A600A6311626983173082000AB00720897
:1031F600AA00263086000030870020308400003088
:1032060085000630F60016001A00F60B062908009F
:103216002000A60014302602031808001B292617D2
:103226002929143017295430A5002508A60729296D
:103236002408003A03192929013A03191229033AE5
:1032460003191429013A031916292929A617F70182
:1032560026089B3175230800F30022006E08031927
:1032660030292100111A3B29730823009A0050299E
:1032760011127308F20022005008303E8600023018
:103286008700720881000130F2007208D007103002
:1032960050020318D0010130EE0221001116080079
:1032A6009C31262422003508C7003408C6002908A8
:1032B600C1002808C0002F08C5002E08C4002B082E
:1032C600C3002A08C200A830B4001130B5004A3045
:1032D600A8001130A9003930AE002730AF002230E7
:1032E600AA002630AB000800F300730803198B29E7
:1032F600A631052699310730F200F20B80290032FB
:10330600A631002699315530F200F20B88290800C3
:10331600A631052699314F30F200F20B9029003282
:10332600A631002699310D30F200F20B98290800DB
:10333600F8007808F4007408F9007908860001306E
:10334600870001080319AC290130F4007408F90755
:10335600A0297808F4000130F500F409F509F40A0B
:103366000319F50A7908F6000130F70074087607A4
:10337600F2007508773DF3000800F7018B139A31C8
:1033860010229931CC30A731272799314E30A731F9
:10339600272799310030A731272799310030A731E7
:1033A600272799317708A731272799319A31102293
:1033B6009931CC30A731272799314830A7312727B3
:1033C6008B170800210062080319080022004D0827
:1033D600031D0800F0302000B0008430B1008031B9
:1033E600962099312000A401A40A003099310B21BE
:1033F6009931A0302000A6008530A7009C316524B5
:1034060099312200CD01CD0A9B31EB239931200061
:103416008E1E080022008E120800A63105269A315B
:103426008930F30000320032F30B152A8930F3009D
:1034360000320032F30B1B2AA63100269A315D308A
:10344600F300F30B242AA6315C269A31F3007308A5
:10345600F4007530F30000320032F30B2E2A75307B
:10346600F30000320032F30B342AA631002674082A
:1034760008002000AD000030F300F4002930F80009
:103486007808F5000430F6000030F7009D31AF25CE
:1034960020002D08860087012908C03F2A08C13F61
:1034A60027088600280887002B08C03F2C08C13F44
:1034B6002D0886008701403F2100E500413FE600D8
:1034C60020002708860028088700403F2200E600E3
:1034D600413FE700080000302000A3000030A200B2
:1034E6000030A1000030A000721C822A760820005D
:1034F600A0077708A13D7808A23D7908A33D0130D1
:10350600F635F70DF80DF90D890B832A0130F536DE
:10351600F40CF30CF20C890B8A2A750874047304F4
:103526007204031D772A20002308F5002208F40000
:103536002108F3002008F20008000430F3000030F0
:10354600F4002B30F8007808F5000430F60000305F
:10355600F7009D31AF252000270886002808870040
:103566002B08C03F2C08C13F290886002A0887007F
:103576002D08C03F2E08C13F27088600280887006F
:10358600403F2200E200413FE30020002908860078
:103596002A088700403F2200E000413FE100080082
:1035A6007408F6007308F5000930F636F50C890B39
:1035B600D82A7508F7000230F735FF3E031DDF2ACB
:1035C60077350338F80078082000A000AA30F50007
:1035D6007508A10022008E1020002008A63128269A
:1035E6009A317308A63128269A31F500750820000D
:1035F600A1000030A6312826F50075082000A1009C
:1036060022008E142000210808002000A301A40136
:103616008B139A3110229B31CC30A73127279B314F
:10362600BE30A73127279B31A731B6279B31200013
:10363600A0002008A500A731B6279B312000A000D6
:103646002008A6009A3110228B1720002608A00019
:10365600A1012008A100A00125082004A300A401BF
:10366600A51BA40320002108A4042408F9002308AC
:10367600F800080020003708031D08002200D301C7
:103686007B082000B8003808BC007B08031D4D2BC2
:103696007A084F2B7B08FF3EB8003808FB007B08F2
:1036A600B800B9013808A0003908A1000C30A20002
:1036B6000030A30098313A209B3178302000BA00C0
:1036C6002730BB0020083A07860021083B3D8700CB
:1036D6000108031D722B3C08B8003808FB008A312C
:1036E600042208002000A2002208F8000430F83660
:1036F600890B7A2B7808F9007908A00022080F397F
:10370600F8007808A1007708031D8B2B8D118C2BF0
:103716008D15003220000C160C08F0392004F80034
:103726007808A30023088C000032003220000C1217
:103736000032003220000C160C08F0392104F80083
:103746007808A30023088C000032003220000C12F7
:10375600003200329E31C626080020005708DA00E3
:103766005608D9000930DA36D90C890BB62B590818
:10377600DB000230DB35FF3E031DBD2B5B35023817
:10378600DC005C08DD00903191209B312000D900DF
:103796005908DE005E080319E32B22008E10200074
:1037A6005D08A63128269B3120005608A63128261A
:1037B6009B3120005808A631282622008E140800C6
:1037C6002F302000B0008430B100803196200800F0
:1037D600210061082000EC00ED01EC0EED0EF0304A
:1037E600ED056C080F39ED04F030EC056C08F300BC
:1037F6006D08F400A030EE006E08F5001030F600FB
:103806000030F7009D31AF259B3101302000EC00E0
:103816006C082100AE0061082000EC00ED01EC0E02
:10382600ED0EF030ED056C080F39ED04F030EC05C7
:103836006C08E7006D08E800A030EE006E08E900AD
:10384600A631E226080023004108031D482C20006B
:10385600AB01AC0100302C02093003192B0203180E
:10386600482C2030AA002B08C13E86000130870074
:103876002A0881000130AB070030AC3D00302C0235
:10388600093003192B02031C342C2000A401073035
:1038960099310B219C31C1302000A6000130A700D0
:1038A6009C3165249C312000A401A40A073099317B
:1038B6000B219C31C1302000A6000130A7009C31AD
:1038C60065240800200026088400270885001200C9
:1038D6000319080020002608840027088500120026
:1038E600253A031D942C0130A6070030A73D260873
:1038F6008400270885000008D03EA8002808A900F3
:10390600A91B8E2C2908803A783E03188E2CF701C5
:10391600F70A29089C2CF701F70A25309B317523F5
:103926009C31F701F70A2000260884002708850045
:1039360000089B3175239C3101302000A60700301A
:10394600A73D652C0C34123412340C340034003488
:1039560000340034003404340E341F340E3404347E
:103966000034003404340434043404341F340E3474
:10397600043400340A34153411340A34043400345F
:10398600003400340A341F341F340E340434003437
:103996000034003400340034003400340034003481
:1039A6000034003400340034003400340034003471
:1039B6000034003400340034003400340034003461
:1039C600003400342000290828042704260403199B
:1039D6001F2DAF01AF0AA91BFC2C0130A635A70D80
:1039E600A80DA90D890BF12C0130AE002E08AF07EA
:1039F600EE2C29082D02031D0A2D28082C02031D72
:103A06000A2D27082B02031D0A2D26082A02031C4D
:103A1600142D2608AA022708AB3B2808AC3B290828
:103A2600AD3B0130A936A80CA70CA60C890B152DA9
:103A36000130AF02031DFC2C2D08A9002C08A8009C
:103A46002B08A7002A08A6000800F8000130F40297
:103A56000030F53B740A0319750A0319682D7808B6
:103A660086000130870001080319472D720884007B
:103A7600730885000008F600780886000130870084
:103A86000108760603195F2D720884007308850005
:103A96000008F600F701F609F709F60A0319F70A0E
:103AA600780886000130870001087607F20077085B
:103AB6000318770AF30008000130F6007608F807C5
:103AC6000130F2070030F33D292DF201F301080021
:103AD600A130F2000030F3000030F400F5001030A1
:103AE600F6000030F700A7319E279D312100A00186
:103AF600610820020318A42D20082000E700E80131
:103B0600E70EE80EF030E80567080F39E804F030F4
:103B1600E7056708103ED6000030683DD700A130A3
:103B2600E9006908D8001030EA006A08D900973120
:103B360024279D3101302000E70067082100A007F7
:103B46007B2D0F302000D6000030D700D8019B31E6
:103B5600B0232100E1010800750803190800740864
:103B66002000A1007308A0000930A136A00C890B23
:103B7600B82D2008A2000230A235FF3E031DBF2D3E
:103B860022350338A3002308A400A501A6012200BC
:103B96008E1020002408A63128269D317308A631F0
:103BA60028269D31770820002602031DDC2D760885
:103BB60025020318F12D0030A63128269D3120005C
:103BC600A00025087507A1002108860087012008A6
:103BD60081000130A5070030A63DD52D22008E14A8
:103BE6000800F801F51FFE2DF409F509F40A03197A
:103BF600F50AF801F80AF31F052EF209F309F20A8D
:103C06000319F30A7208730403192C2EF701F70A35
:103C1600F31B172E0130F235F30D890B0E2E0130F2
:103C2600F6007608F7070B2E73087502031D1D2E86
:103C360072087402031C232E7208F4027308F53B03
:103C46000130F336F20C890B242E0130F702031DE6
:103C5600172E78080319342EF409F509F40A031906
:103C6600F50A7508F3007408F2000800FB01093034
:103C76002000A6002608FA00F9010A307902031886
:103C8600712E7908A600A7012608A0002708A10022
:103C96000C30A2000030A30098313A209E317830D3
:103CA6002000A8002730A900200828078600210840
:103CB600293D87000108031D692E79080319692E1D
:103CC6007908FF3EA6002608FA00712E0130A600EC
:103CD6002608F9070A307902031C442E3D302200DB
:103CE600B4001B30B500C630A8000730A9000E305E
:103CF600AE001F30AF0008002100BD01932E3E0824
:103D06002000EF0022005A08B13E860001308700ED
:103D160020006F0881000130EF006F082200DA07EB
:103D2600210064080319AF2E903100209E31200037
:103D3600EF006F082100BE003E08A531FB259E312D
:103D46000D3021003E06031D822E0A30A531FB25CB
:103D56009E312100BD01BD0A3D0803190800B1309E
:103D66008531D5259E312200DA01B130F2000130CD
:103D7600F3000030F400F5001030F6000030F700D4
:103D8600A7319E270800F6010F30F20072082100C5
:103D96008C0420000D158D11003220000C16003207
:103DA60020000C08F2007208F6007608F2000330D4
:103DB600F235FF3E031DDB2E7235F3007308F60065
:103DC600003220000C120032003220000C160032A5
:103DD60020000C08F2007208F5000F30F20072089D
:103DE600F50576087504F2007208F6007608803943
:103DF600F2007208F400003220000C120032003289
:103E06007408031DD02E20000D11F030F200720848
:103E160021008C05080020003A08031D5B2F7B0853
:103E2600BB00BC013B08A0003C08A1000C30A2006E
:103E36000030A30098313A209F31200020080A3E26
:103E4600BD000030213DBE007830BF002730C000E5
:103E56003D083F0786003E08403D870016000104E6
:103E660003190800B7017B08BB00BC013B08A00092
:103E76003C08A1000C30A2000030A30098313A2083
:103E86009F31200020080A3EBD000030213DBE00C3
:103E96007830BF002730C0003D083F0786003E0847
:103EA600403D8700413F8A00403F0A009F3108009D
:103EB6008A31042208002000A6009C30A500D730D5
:103EC600A400A40B642FA50B642FF0302000A400DF
:103ED600240821008C050C128D110D11F0302000E4
:103EE600A40024088C050C120D118D11003220003F
:103EF6000C168C140032003220000C1200320032F4
:103F06009E31C6269F31F70128309B3175239F319C
:103F1600F701200026080C389B3175239F31F701E5
:103F260040309B3175239F312000A7014030270286
:103F360003180800F701F70A2708A03E860002309A
:103F4600870001089B3175239F3101302000A400B2
:103F56002408A707992F2000A101F31FB92FF20902
:103F6600F309F20A0319F30AA101A10AF51FC42FE6
:103F7600F409F509F40A0319F50A0130F600760882
:103F8600A106A201A301720873040319F32FA0016D
:103F9600A00AF31BD82F0130F235F30D890BCF2F72
:103FA6000130F6007608A007CC2F0130A235A30D0C
:103FB600890BD92F73087502031DE32F720874024B
:103FC600031CEA2F7208F4027308F53B2214013031
:103FD600F336F20C890BEB2F0130A002031DD82F0C
:103FE60021080319FB2FA209A309A20A0319A30A90
:0A3FF6002308F3002208F20008007F
:104BE40020009110080020001C150800280017154B
:104BF4000800F400740899312F21080021008C1258
:104C040022008C16080021008C1222008C1208004D
:104C14003830210099009A01980108002400940179
:104C2400303095009201080022003708F30036085E
:104C3400F200080022006D08F3006C08F20008007E
:104C4400A631F226A631923165220800F200240032
:104C5400951372089100141C2D2E110808002200CF
:104C64002308F5002208F4002108F3002008F200CC
:104C740008000F30F3000030F4009A31D322F90019
:104C840079082100E100080080302C0099007F3071
:104C94009800C0309700CF3025009E050800200002
:104CA4009C01FF309B009A01911021009114A531C1
:104CB400F5250800F20122008C1620008C1E652EBA
:104CC400F201F20A662EF20172080800FE001200D8
:104CD4001E000130FE020030FF3B7F087E040319F2
:104CE4000034692E6400800101310130FE0200307D
:104CF400FF3B7F087E0403190034752E78302800AA
:104D04009700F9309600950120009210210092142A
:104D1400A531F82508009A311022A631F50075084E
:104D2400F6007608031D982E0130080000300800B4
:104D34008B139A311022A631CC30A7312727A63104
:104D44004430A73127278B170800F300F2013A30CB
:104D540073020318B32E30307302031CB32EF20116
:104D6400F20A720C0800F300F2015B3073020318BC
:104D7400C12E41307302031CC12EF201F20A720CDF
:104D84000800F3007B3073020318D02E61307302E5
:104D9400031CD02EDF30F2007208F30573080800FC
:104DA40022008E100530A6312826A6310030A63107
:104DB4002826F3007308F40022008E1474080800F7
:104DC40020006808D7006708D6006908EA006A0866
:104DD400D8001030EB006B08D90097312427080065
:104DE40022000D160330F4000830F3007830F2008E
:104DF400F20BFA2EF30BFA2EF40BFA2E22000D12FC
:104E04000800F500F401F40A7B30750203180E2F34
:104E1400613075020318132F7508A631B526031CDB
:104E2400F401740C0800F300F201F20A2030730656
:104E34000319252F0E3073020318242F093073022F
:104E44000318252FF201720C0800F500F601083052
:104E54007602031808007508013999317721A731C2
:104E64000310F50C0130F4007408F607292F200014
:104E74003A08031D080021006308031D432F013075
:104E8400442F00302000BB003B082100E3008831A0
:104E94001120080001302000DF005F082100E10735
:104EA4000F302000D6000030D70021006108200018
:104EB400DF005F08D8009B31B02308000030F20007
:104EC400F30098311F20A73100309F315E27A731AE
:104ED400F70101309B317523A73198318F202200CF
:104EE4008E12080066302000A7000130A800E530CB
:104EF4009A313C22A73162302000A7000130A8007B
:104F04006030A9000130AA009A31A0220800A6311D
:104F14000A26A7319031ED20A731A6315126A731B9
:104F2400A6314626A73198310420A731A631102690
:104F3400A731A631802608007308F9007208F8002A
:104F44000130F6020030F73B760A0319770A031999
:104F54000800780886007908870074088100013009
:104F6400F8070030F93DA22FF601F7010830770267
:104F74000318CC2F0310F60C98315620A731003AB1
:104F8400031DF6170130F5007508F707083077029E
:104F9400031CBD2F76080800200092100130220067
:104FA400B6070030B73D03303702E8300319360244
:104FB400031C08000130A0070030A13D0030A23DD1
:104FC4000030A33DB601B7010800A6311C26A73165
:104FD40073082000B9007208B800380839040319AE
:104FE400F92F0030F200F30098311F200800003040
:0C4FF400F2000230F30098311F2008008A
:020000040001F9
:04000E00F9FFFFDF18
:00000001FF
